{"abi":[{"type":"constructor","inputs":[{"name":"_verifier","type":"address","internalType":"contract IRiscZeroVerifier"}],"stateMutability":"nonpayable"},{"type":"function","name":"batchCount","inputs":[],"outputs":[{"name":"","type":"uint256","internalType":"uint256"}],"stateMutability":"view"},{"type":"function","name":"depositETH","inputs":[{"name":"layer2Address","type":"address","internalType":"address"}],"outputs":[],"stateMutability":"payable"},{"type":"function","name":"imageId","inputs":[],"outputs":[{"name":"","type":"bytes32","internalType":"bytes32"}],"stateMutability":"view"},{"type":"function","name":"roots","inputs":[{"name":"","type":"uint256","internalType":"uint256"}],"outputs":[{"name":"","type":"bytes32","internalType":"bytes32"}],"stateMutability":"view"},{"type":"function","name":"submitBatch","inputs":[{"name":"newRoot","type":"bytes32","internalType":"bytes32"},{"name":"txData","type":"bytes","internalType":"bytes"},{"name":"seal","type":"bytes","internalType":"bytes"}],"outputs":[],"stateMutability":"nonpayable"},{"type":"function","name":"verifier","inputs":[],"outputs":[{"name":"","type":"address","internalType":"contract IRiscZeroVerifier"}],"stateMutability":"view"},{"type":"event","name":"BatchSubmitted","inputs":[{"name":"batchId","type":"uint256","indexed":true,"internalType":"uint256"},{"name":"root","type":"bytes32","indexed":false,"internalType":"bytes32"},{"name":"txData","type":"bytes","indexed":false,"internalType":"bytes"}],"anonymous":false},{"type":"event","name":"Deposit","inputs":[{"name":"layer2Address","type":"address","indexed":false,"internalType":"address"},{"name":"amount","type":"uint256","indexed":false,"internalType":"uint256"}],"anonymous":false},{"type":"event","name":"VerificationDebug","inputs":[{"name":"imageId","type":"bytes32","indexed":false,"internalType":"bytes32"},{"name":"journalHash","type":"bytes32","indexed":false,"internalType":"bytes32"},{"name":"sealLength","type":"uint256","indexed":false,"internalType":"uint256"}],"anonymous":false}],"bytecode":{"object":"0x60a060405234801561000f575f5ffd5b50604051610eda380380610eda833981810160405281019061003191906100da565b8073ffffffffffffffffffffffffffffffffffffffff1660808173ffffffffffffffffffffffffffffffffffffffff168152505050610105565b5f5ffd5b5f73ffffffffffffffffffffffffffffffffffffffff82169050919050565b5f6100988261006f565b9050919050565b5f6100a98261008e565b9050919050565b6100b98161009f565b81146100c3575f5ffd5b50565b5f815190506100d4816100b0565b92915050565b5f602082840312156100ef576100ee61006b565b5b5f6100fc848285016100c6565b91505092915050565b608051610db66101245f395f818161015d01526104640152610db65ff3fe608060405260043610610054575f3560e01c806306f13056146100585780632b7ac3f3146100825780632d2da806146100ac57806380d55c33146100c8578063c2b40ae4146100f0578063ef3f7dd51461012c575b5f5ffd5b348015610063575f5ffd5b5061006c610156565b60405161007991906106bf565b60405180910390f35b34801561008d575f5ffd5b5061009661015b565b6040516100a39190610752565b60405180910390f35b6100c660048036038101906100c191906107ae565b61017f565b005b3480156100d3575f5ffd5b506100ee60048036038101906100e9919061086d565b61026b565b005b3480156100fb575f5ffd5b5061011660048036038101906101119190610928565b610582565b6040516101239190610962565b60405180910390f35b348015610137575f5ffd5b50610140610597565b60405161014d9190610962565b60405180910390f35b5f5481565b7f000000000000000000000000000000000000000000000000000000000000000081565b5f73ffffffffffffffffffffffffffffffffffffffff168173ffffffffffffffffffffffffffffffffffffffff16036101ed576040517f08c379a00000000000000000000000000000000000000000000000000000000081526004016101e4906109d5565b60405180910390fd5b5f341161022f576040517f08c379a000000000000000000000000000000000000000000000000000000000815260040161022690610a3d565b60405180910390fd5b7fe1fffcc4923d04b559f4d29a8bfc6cda04eb5b0d3c460751c2402c5c5cc9109c8134604051610260929190610a6a565b60405180910390a150565b5f60028660405160200161027f9190610ab1565b60405160208183030381529060405260405161029b9190610b1d565b602060405180830381855afa1580156102b6573d5f5f3e3d5ffd5b5050506040513d601f19601f820116820180604052508101906102d99190610b47565b905061033e6040518060400160405280600881526020017f496d61676549443a0000000000000000000000000000000000000000000000008152507f06cfc71c4713e037f309f5324d121657ccdbc211d960e789a928bc3ac55986895f1b5f1c6105bd565b61037f6040518060400160405280600d81526020017f4a6f75726e616c20486173683a00000000000000000000000000000000000000815250825f1c6105bd565b6103c06040518060400160405280600981526020017f4e657720526f6f743a0000000000000000000000000000000000000000000000815250875f1c6105bd565b6104026040518060400160405280600c81526020017f5365616c206c656e6774683a0000000000000000000000000000000000000000815250848490506105bd565b7fdf33ae224400e9748637b96ea35337e63ba5ad89cb33ab59efe40c8b6d4af75f7f06cfc71c4713e037f309f5324d121657ccdbc211d960e789a928bc3ac55986895f1b828585905060405161045a93929190610b72565b60405180910390a17f000000000000000000000000000000000000000000000000000000000000000073ffffffffffffffffffffffffffffffffffffffff1663ab750e7584847f06cfc71c4713e037f309f5324d121657ccdbc211d960e789a928bc3ac55986895f1b856040518563ffffffff1660e01b81526004016104e39493929190610c01565b5f6040518083038186803b1580156104f9575f5ffd5b505afa15801561050b573d5f5f3e3d5ffd5b505050505f5f5f81548092919061052190610c6c565b9190505590508660015f8381526020019081526020015f2081905550807ff249c54a0947a11148737e692413104351500b1c71af314c9b5aad9ac631e5da88888860405161057193929190610cb3565b60405180910390a250505050505050565b6001602052805f5260405f205f915090505481565b7f06cfc71c4713e037f309f5324d121657ccdbc211d960e789a928bc3ac55986895f1b81565b61065582826040516024016105d3929190610d25565b6040516020818303038152906040527fb60e72cc000000000000000000000000000000000000000000000000000000007bffffffffffffffffffffffffffffffffffffffffffffffffffffffff19166020820180517bffffffffffffffffffffffffffffffffffffffffffffffffffffffff8381831617835250505050610659565b5050565b61067081610668610673610692565b63ffffffff16565b50565b5f6a636f6e736f6c652e6c6f6790505f5f835160208501845afa505050565b61069d819050919050565b6106a5610d53565b565b5f819050919050565b6106b9816106a7565b82525050565b5f6020820190506106d25f8301846106b0565b92915050565b5f73ffffffffffffffffffffffffffffffffffffffff82169050919050565b5f819050919050565b5f61071a610715610710846106d8565b6106f7565b6106d8565b9050919050565b5f61072b82610700565b9050919050565b5f61073c82610721565b9050919050565b61074c81610732565b82525050565b5f6020820190506107655f830184610743565b92915050565b5f5ffd5b5f5ffd5b5f61077d826106d8565b9050919050565b61078d81610773565b8114610797575f5ffd5b50565b5f813590506107a881610784565b92915050565b5f602082840312156107c3576107c261076b565b5b5f6107d08482850161079a565b91505092915050565b5f819050919050565b6107eb816107d9565b81146107f5575f5ffd5b50565b5f81359050610806816107e2565b92915050565b5f5ffd5b5f5ffd5b5f5ffd5b5f5f83601f84011261082d5761082c61080c565b5b8235905067ffffffffffffffff81111561084a57610849610810565b5b60208301915083600182028301111561086657610865610814565b5b9250929050565b5f5f5f5f5f606086880312156108865761088561076b565b5b5f610893888289016107f8565b955050602086013567ffffffffffffffff8111156108b4576108b361076f565b5b6108c088828901610818565b9450945050604086013567ffffffffffffffff8111156108e3576108e261076f565b5b6108ef88828901610818565b92509250509295509295909350565b610907816106a7565b8114610911575f5ffd5b50565b5f81359050610922816108fe565b92915050565b5f6020828403121561093d5761093c61076b565b5b5f61094a84828501610914565b91505092915050565b61095c816107d9565b82525050565b5f6020820190506109755f830184610953565b92915050565b5f82825260208201905092915050565b7f50000000000000000000000000000000000000000000000000000000000000005f82015250565b5f6109bf60018361097b565b91506109ca8261098b565b602082019050919050565b5f6020820190508181035f8301526109ec816109b3565b9050919050565b7f4d000000000000000000000000000000000000000000000000000000000000005f82015250565b5f610a2760018361097b565b9150610a32826109f3565b602082019050919050565b5f6020820190508181035f830152610a5481610a1b565b9050919050565b610a6481610773565b82525050565b5f604082019050610a7d5f830185610a5b565b610a8a60208301846106b0565b9392505050565b5f819050919050565b610aab610aa6826107d9565b610a91565b82525050565b5f610abc8284610a9a565b60208201915081905092915050565b5f81519050919050565b5f81905092915050565b8281835e5f83830152505050565b5f610af782610acb565b610b018185610ad5565b9350610b11818560208601610adf565b80840191505092915050565b5f610b288284610aed565b915081905092915050565b5f81519050610b41816107e2565b92915050565b5f60208284031215610b5c57610b5b61076b565b5b5f610b6984828501610b33565b91505092915050565b5f606082019050610b855f830186610953565b610b926020830185610953565b610b9f60408301846106b0565b949350505050565b5f82825260208201905092915050565b828183375f83830152505050565b5f601f19601f8301169050919050565b5f610be08385610ba7565b9350610bed838584610bb7565b610bf683610bc5565b840190509392505050565b5f6060820190508181035f830152610c1a818688610bd5565b9050610c296020830185610953565b610c366040830184610953565b95945050505050565b7f4e487b71000000000000000000000000000000000000000000000000000000005f52601160045260245ffd5b5f610c76826106a7565b91507fffffffffffffffffffffffffffffffffffffffffffffffffffffffffffffffff8203610ca857610ca7610c3f565b5b600182019050919050565b5f604082019050610cc65f830186610953565b8181036020830152610cd9818486610bd5565b9050949350505050565b5f81519050919050565b5f610cf782610ce3565b610d01818561097b565b9350610d11818560208601610adf565b610d1a81610bc5565b840191505092915050565b5f6040820190508181035f830152610d3d8185610ced565b9050610d4c60208301846106b0565b9392505050565b7f4e487b71000000000000000000000000000000000000000000000000000000005f52605160045260245ffdfea264697066735822122050d16b447773d4998a41941f2c412e79b6b023e4a381d11ff3ab179ead91b88764736f6c634300081e0033","linkReferences":{}},"methodIdentifiers":{"batchCount()":"06f13056","depositETH(address)":"2d2da806","imageId()":"ef3f7dd5","roots(uint256)":"c2b40ae4","submitBatch(bytes32,bytes,bytes)":"80d55c33","verifier()":"2b7ac3f3"},"id":1}